:100000006F0040016F00C000000000000000000011
:10001000730020309301407117110000130181BE5D
:10002000930240711303407163F8620023A0020041
:1000300093824200E3EC62FEEF00C0006F0000001C
:1000400013000000EF00C001EF004005EF00C00802
:10005000EF00402BEF000037EF00C0386FF05FFF7C
:100060009302006D1303000023A062009302406D11
:100070001303000123A062009302806D23A00200FD
:100080009302C06D23A002009302006E23A06200C1
:100090009302406E23A0620067800000130181FF7D
:1000A000232011002322810017140000130484B5BB
:1000B00093020040130300002300640013041400A3
:1000C0009382F2FFE39A02FE8320010003244100A1
:1000D0001301810067800000130181FE23201100BD
:1000E000232281002324910023262101232831018A
:1000F000232A4101171400001304C4B09304000024
:10010000130900001305090093850400EF00C005E2
:10011000630605009309F00F6F008000930900004B
:1001200093925400B3822201330A540023003A010F
:100130001309190093020002E34659FC938414004A
:1001400093020002E3CE54FA83200100032441000D
:10015000832481000329C10083290101032A41016D
:100160001301810167800000130101FF23201100AA
:10017000232281002324910023262101130405005A
:100180009384050093020001639A540093020000D7
:10019000634654069302F00063D882149302F00081
:1001A000631A54009302800063CA5404930200014E
:1001B00063DC921293028000639A54009302F00071
:1001C000634E54029302900163D082129302900115
:1001D000631A54009302800063C254029302000128
:1001E00063D4921093020001639A54009302900129
:1001F000634654009302F00163D8820E9302C0005C
:10020000639A54009302A000634A5404930240018D
:1002100063DC820C93024001631A54009302C00015
:1002200063CE54029302000163D0920C9302C0008B
:10023000631654009302E0006388540A9302D000CE
:10024000631654009302D0006380540A9302E000C6
:10025000631654009302C000638854089302500050
:10026000631A54009302A00063C254029302E00098
:1002700063DC92069302A000639A5400930250003C
:10028000634654009302800063D0820693023000DC
:10029000631654009302E0006388540493028000C4
:1002A00063165400930250006380540493022001AB
:1002B0006316540093025000638854029302C001F5
:1002C000631854009302A000638054026F00400042
:1002D0009302F001631654009302F0006386540009
:1002E000130500006F00800013051000832001003B
:1002F00003244100832481000329C100130101016B
:10030000678000001301C1FE232011002322810019
:100310002324910023262101232831019302006D1B
:1003200003A402009302406D83A402009302006EB6
:1003300003A902009302406E83A902006316240100
:10034000639434016F004006971200009382828B01
:100350001393590033032301B3836200130509008B
:1003600093850900EFF05FE063060500130EF00FC0
:100370006F008000130E00002380C301971200005D
:1003800093824288139354003303830033836200C3
:100390009303000E230073009302006E23A08200DB
:1003A0009302406E23A092008320010003244100A9
:1003B000832481000329C100832901011301410124
:1003C00067800000B70200B00383020013730304C8
:1003D0006306030003851200678000001305000018
:1003E00067800000130181FF232011002322810078
:1003F0009302006D03A302009302406D83A30200E9
:10040000130EF001930EF000631AC3016398D30139
:100410009302806D03A502006F000012630A052895
:100420009302C06D03A302006314032893027007B4
:1004300063005502930230076302550493021006CD
:100440006304550693024006630655086F00402674
:100450009302406D03A302009303F3FF938503000F
:100460009302006D03A50200EFF01FD0630A050898
:100470009302406D23A072006F0040099302406D0B
:1004800003A3020093031300938503009302006DFE
:1004900003A50200EFF05FCD630405069302406DF3
:1004A00023A072006F0080069302006D03A3020078
:1004B0009303F3FF138503009302406D83A50200AD
:1004C000EFF09FCA630E05029302006D23A0720035
:1004D0006F00C0039302006D03A302009303130097
:1004E000138503009302406D83A50200EFF0DFC780
:1004F000630805009302006D23A072006F000001E5
:100500009302806D03A502006F0000069302806DC8
:1005100003A302001303130023A062009302C06D23
:100520001303100023A06200B70200B093821200F0
:10053000238002006F00C017130405009302806E31
:100540000323806FB70300C0038502002380A3004C
:10055000938212001303F3FFE31803FE1305040054
:10056000EF0080036F004016130405009302C06F74
:100570000323E070B70300C0038502002380A300BB
:10058000938212001303F3FFE31803FE1305040024
:10059000EF0080006F008013130181FE2320110003
:1005A00023228100232491002326210123283101C5
:1005B000232A4101130405009304A000130900003D
:1005C000B70900C0130A00006318040013050003F4
:1005D0002380A9006F000005630A0402930204004F
:1005E0001303000063C89200B38292401303130008
:1005F0006FF05FFF938202031301F1FF23005100AC
:1006000013091900130403006FF01FFD630C0900A8
:1006100003050100130111002380A9001309F9FF4C
:100620006FF0DFFE8320010003244100832481005A
:100630000329C10083290101032A4101130181011A
:1006400067800000130141FF232011002322810055
:10065000232491001304050093840500638604029B
:10066000630A04029302000013030400634893002A
:1006700033039340938212006FF05FFF13850200F3
:10068000930503006F00800113050000930500002F
:100690006F00C000130500009305000083200100D7
:1006A00003244100832481001301C10067800000FE
:1006B0009302C06D23A002008320010003244100A7
:1006C00013018100678000006F0000006F000000D0
:1006D000000000001000000000000000000000000A
:1006E0000000000010000000564943544F525921A9
:1006F0002053434F52453A201000000047414D45DA
:10070000204F564552212053434F52453A20120064
:020710000000E7
:00000001FF
